:020000040000FA
:100000000C9435000C945D000C945D000C945D0024
:100010000C945D000C945D000C945D000C945D00EC
:100020000C945D000C945D000C945D000C945D00DC
:100030000C945D000C945D000C945D000C945D00CC
:100040000C946C020C945D000C943A020C94140213
:100050000C945D000C945D000C945D000C945D00AC
:100060000C945D000C945D00E20311241FBECFEFE1
:10007000D8E0DEBFCDBF11E0A0E0B1E0EEEDFDE0E5
:1000800002C005900D92AC31B107D9F721E0ACE187
:10009000B1E001C01D92A23CB207E1F710E0C5E358
:1000A000D0E004C02197FE010E940F04C433D107A1
:1000B000C9F70E94B6020C94ED060C940000AF92B2
:1000C000BF92CF92DF92EF92FF920F931F93CF9345
:1000D000DF936C017B018B01040F151FEB015E01A7
:1000E000AE18BF08C017D10759F06991D601ED913C
:1000F000FC910190F081E02DC6010995892B79F7DB
:10010000C501DF91CF911F910F91FF90EF90DF908C
:10011000CF90BF90AF900895FC01538D448D252F53
:1001200030E0842F90E0821B930B541710F0CF9691
:10013000089501970895FC01918D828D981761F0C3
:10014000A28DAE0FBF2FB11D5D968C91928D9F5FDA
:100150009F73928F90E008958FEF9FEF0895FC01B9
:10016000918D828D981731F0828DE80FF11D858D6C
:1001700090E008958FEF9FEF0895FC01918D228DFF
:10018000892F90E0805C9F4F821B91098F73992784
:10019000089585E291E00E94BD0021E0892B09F4D9
:1001A00020E0822F089580E090E0892B29F00E94C2
:1001B000C90081110C9400000895FC01A48DA80FC2
:1001C000B92FB11DA35ABF4F2C91848D90E0019699
:1001D0008F739927848FA689B7892C93A089B189B9
:1001E0008C91837080648C93938D848D981306C05A
:1001F0000288F389E02D80818F7D80830895EF92BE
:10020000FF920F931F93CF93DF93EC0181E0888FD0
:100210009B8D8C8D98131AC0E889F989808185FFA0
:1002200015C09FB7F894EE89FF896083E889F98942
:1002300080818370806480839FBF81E090E0DF9144
:10024000CF911F910F91FF90EF900895F62E0B8D97
:1002500010E00F5F1F4F0F731127E02E8C8D8E1152
:100260000CC00FB607FCFACFE889F989808185FFB9
:10027000F5CFCE010E94DD00F1CFEB8DEC0FFD2F0D
:10028000F11DE35AFF4FF0829FB7F8940B8FEA8974
:10029000FB8980818062CFCFCF93DF93EC01888D83
:1002A0008823B9F0AA89BB89E889F9898C9185FDF1
:1002B00003C0808186FD0DC00FB607FCF7CF8C917F
:1002C00085FFF2CF808185FFEDCFCE010E94DD005A
:1002D000E9CFDF91CF9108958E50806480937C00A8
:1002E00080917A00806480937A0080917A0086FD04
:1002F000FCCF809178009091790008953FB7F894F1
:100300008091210190912201A0912301B0912401BB
:1003100026B5A89B05C02F3F19F00196A11DB11D60
:100320003FBFBA2FA92F982F8827BC01CD01620F9C
:10033000711D811D911D42E0660F771F881F991F57
:100340004A95D1F708959B01205331092A30310590
:1003500040F444E0880F991F4A95E1F7822B932BD4
:1003600008959B01215631092630310550F434E0BF
:10037000880F991F3A95E1F767557109862B972BDE
:1003800008959B012154310926303105C8F724E036
:10039000880F991F2A95E1F767537109EFCFCF9224
:1003A000DF92EF92FF92CF939C0196E036952795CE
:1003B0009A95E1F725B99BB19370880F880F892B27
:1003C0008BB90E947E016B017C010E947E016C1939
:1003D0007D098E099F09683E734081059105A8F348
:1003E000C6B184E10E946C018130924074F485E1D1
:1003F0000E946C01813092400CF0C0688C2FCF912C
:10040000FF90EF90DF90CF900895C064F0CFFC0193
:1004100001900020E9F73197AF01481B590BBC014F
:1004200085E291E00C945F001F920F920FB60F923D
:1004300011242F933F934F935F936F937F938F93E9
:100440009F93AF93BF93EF93FF9385E291E00E9458
:10045000DD00FF91EF91BF91AF919F918F917F91BF
:100460006F915F914F913F912F910F900FBE0F9021
:100470001F9018951F920F920FB60F9211242F9371
:100480008F939F93EF93FF93E0913501F0913601A5
:100490008081E0913B01F0913C0182FD1BC0908185
:1004A00080913E018F5F8F7320913F01821741F051
:1004B000E0913E01F0E0EB5DFE4F958F80933E01B1
:1004C000FF91EF919F918F912F910F900FBE0F9001
:1004D0001F9018958081F4CF1F920F920FB60F9244
:1004E00011242F933F938F939F93AF93BF9380914A
:1004F0001D0190911E01A0911F01B091200130912A
:100500001C0123E0230F2D3758F50196A11DB11DC5
:1005100020931C0180931D0190931E01A0931F0145
:10052000B09320018091210190912201A09123019B
:10053000B09124010196A11DB11D809321019093DA
:100540002201A0932301B0932401BF91AF919F9109
:100550008F913F912F910F900FBE0F901F90189584
:1005600026E8230F0296A11DB11DD2CFCF93DF93B2
:1005700000D000D0CDB7DEB7789484B5826084BD5A
:1005800084B5816084BD85B5826085BD85B5816097
:1005900085BD80916E00816080936E001092810015
:1005A00080918100826080938100809181008160D0
:1005B0008093810080918000816080938000809191
:1005C000B10084608093B1008091B000816080931D
:1005D000B00080917A00846080937A0080917A00E4
:1005E000826080937A0080917A00816080937A00A3
:1005F00080917A00806880937A001092C100E09127
:100600003501F091360182E08083E0913101F09173
:1006100032011082E0913301F091340183E3808351
:1006200010923D01E0913901F0913A0186E080831A
:10063000E0913701F0913801808180618083E09101
:100640003701F0913801808188608083E091370123
:10065000F0913801808180688083E0913701F091CA
:10066000380180818F7D808317B88AB18C6F8AB9F9
:100670008FE384B982E1682E81E0782ECE01019665
:100680007C01B12CA12CD12CC12C00E010E085E222
:1006900091E00E94BD00892BD1F385E291E00E9498
:1006A0009B00BC018D309105F1F10130A9F168F09A
:1006B000023069F7809739F0C5010E94A3015C01FF
:1006C000E6CF02E0E4CF03E0E2CF87359105D9F031
:1006D00064F482359105E9F086359105B9F08434EA
:1006E0009105A9F601E014E4D2CF8237910589F093
:1006F00024F484369105B1F3CACF8637910531F0E1
:100700008737910521F601E017E5C1CF03E016E533
:10071000BECF01E012E5BBCF809799F2C6010E94DF
:10072000A3016C01B4CF1235C1F1163509F11434AF
:1007300039F5912C812CA814B90411F1C601880D4A
:10074000991D0E94CF011F928F937F926F92FF920B
:10075000EF920E941504C7010E9407029FEF891AB9
:10076000990A0F900F900F900F900F900F90E3CF7A
:1007700087E191E00E94070289E191E00E9407026F
:1007800080E090E0892B09F47CCF0E94C900882387
:1007900009F477CF0E94000074CFC6010E94CF01F8
:1007A0001F928F937F926F92FF92EF920E94150497
:1007B000C7010E9407020F900F900F900F900F90AB
:1007C0000F90DECFE5E2F1E01382128288EE93E033
:1007D000A0E0B0E084839583A683B78384E091E0B2
:1007E0009183808385EC90E09587848784EC90E00A
:1007F0009787868780EC90E0918B808B81EC90E0EE
:10080000938B828B82EC90E0958B848B86EC90E0CE
:10081000978B868B118E128E138E148E0895EE0F89
:10082000FF1F0590F491E02D0994AEE0B0E0EBE1FC
:10083000F4E00C94C4060D891E8986E08C831A832B
:1008400009838FEF9FE79E838D83AE01475E5F4FE5
:100850006F89788DCE0101960E9438042F813885EA
:10086000020F131FF80110822E96E4E00C94E006AC
:10087000ABE0B0E0EEE3F4E00C94B6067C013B01A3
:100880008A01FC0117821682838181FFC8C1CE01D3
:1008900001965C01F7019381F30193FD859193FF2C
:1008A00081913F01882309F453C1853239F493FDC6
:1008B000859193FF81913F01853229F4B70190E042
:1008C0000E942806E7CF912C212C312CFFE1F31553
:1008D00038F08B3211F190F4803209F1833229F132
:1008E00037FC3CC020ED280F2A3050F536FE20C0E2
:1008F0008AE0989E200D1124922E06C08D3291F030
:10090000803371F7689430F8F30193FD859193FF7C
:1009100081913F018111DACF21C0689431F8689448
:1009200032F8F2CF689433F8EFCF689434F8ECCF14
:10093000EAE02E9E200D1124222E689435F8E4CF93
:100940008E3229F436FC04C1689436F8DDCF8C363B
:1009500019F4689437F8D8CF8836B1F2982F9F7D74
:1009600095549330E0F08336A1F18337C1F183359C
:1009700009F063C02801F2E04F0E511CF801C0805D
:10098000D180692D70E036FC02C06FEF7FEFC601A9
:100990000E9412064C01689437F882010AC00C5F6D
:1009A0001F4FFFE3F98388248394912C6501E89419
:1009B00037F833FE2DC0522C8114910471F5552067
:1009C00009F468CFB70180E290E00E9428065A94AB
:1009D000F6CFF801808189830E5F1F4FE4CF280195
:1009E000F2E04F0E511CF801C080D180692D70E0FB
:1009F00036FC02C06FEF7FEFC6010E941D064C015E
:100A00008201D5CFB70180E290E00E9428062A94A7
:100A10002814190409F0B0F7CECFF60137FC859100
:100A200037FE81916F01B70190E00E9428065110B6
:100A30005A94F1E08F1A9108BFCF843619F08936A5
:100A400009F077C0F80137FE6BC060817181828147
:100A500093810C5F1F4FF32DFF763F2E97FF09C048
:100A600090958095709561957F4F8F4F9F4F6894BB
:100A700037F82AE030E0A5010E945806C82ECA18AF
:100A80008C2C432C36FE0CC0E89440F8C91440F47A
:100A900034FE05C032FC03C0F32DFE7E4F2E892CA0
:100AA00044FE95C0FE01EC0DF11D8081803309F0FC
:100AB00087C0242D297E422E842D8870582E43FC19
:100AC00095C040FE8FC09C2C821418F42C0C922CE4
:100AD000981844FE91C0B70180E390E00E94280678
:100AE00042FE09C088E790E041FE02C088E590E040
:100AF000B7010E942806C91408F48AC0CA94D12CF0
:100B00009FEFC91AD90ACA0CDB1CF60182916F014A
:100B1000B70190E00E942806AC14BD04B1F74FCF96
:100B200060817181072E000C880B990B0E5F1F4F9F
:100B300092CFD32CE894D4F82AE030E0853739F10D
:100B4000232D297FD22E8F3601F148F48835A9F064
:100B5000F701868197812B96E2E10C94D2068037CB
:100B600049F08837A9F7D4FE02C06894D2F820E192
:100B700030E00DC06894D4F8F6CF34FE03C0822F65
:100B80008660D82E20E132E002C028E030E0F80193
:100B9000D7FE0FC060817181828193810C5F1F4FEE
:100BA000A5010E945806C82ECA183D2CE89437F8B3
:100BB00067CF6081718190E080E00E5F1F4FF0CFC2
:100BC00042FC02C0839478CF8394839475CF842DA4
:100BD000867809F471CFF6CFB70180E290E00E94E9
:100BE000280683948214C0F3512C73CF522C5818CA
:100BF000821408F46ECFF8CF842D867809F47BCF69
:100C00008BE241FE80E247FC8DE2B70190E071CFBC
:100C1000B70180E390E00E9428069A946CCF8FEF92
:100C20009FEF99CFFC010590615070400110D8F7FB
:100C3000809590958E0F9F1F0895FC016150704024
:100C400001900110D8F7809590958E0F9F1F089501
:100C50000F931F93CF93DF93182F092FEB018B81F5
:100C600081FD09C01FEF0FEF812F902FDF91CF91F2
:100C70001F910F91089582FF14C02E813F818C81B6
:100C80009D81281739073CF4E881F981CF0101964D
:100C90009983888310838E819F8101969F838E83A1
:100CA000E3CFE885F985812F0995892BA1F3DACF68
:100CB000FA01AA27283051F1203181F1E8946F938D
:100CC0006E7F6E5F7F4F8F4F9F4FAF4FB1E03ED033
:100CD000B4E03CD0670F781F891F9A1FA11D680FD1
:100CE000791F8A1F911DA11D6A0F711D811D911D04
:100CF000A11D20D009F468943F912AE0269F112479
:100D00003019305D3193DEF6CF010895462F4770DC
:100D1000405D4193B3E00FD0C9F7F6CF462F4F7037
:100D2000405D4A3318F0495D31FD4052419302D095
:100D3000A9F7EACFB4E0A69597958795779567953B
:100D4000BA95C9F700976105710508959B01AC013B
:100D50000A2E06945795479537952795BA95C9F762
:100D6000620F731F841F951FA01D08952F923F923D
:100D70004F925F926F927F928F929F92AF92BF92AB
:100D8000CF92DF92EF92FF920F931F93CF93DF9357
:100D9000CDB7DEB7CA1BDB0B0FB6F894DEBF0FBEB4
:100DA000CDBF09942A88398848885F846E847D8401
:100DB0008C849B84AA84B984C884DF80EE80FD8003
:100DC0000C811B81AA81B981CE0FD11D0FB6F89479
:100DD000DEBF0FBECDBFED010895F894FFCF000038
:100DE0000000FF005F008C004C01BD009B00AF00C5
:0A0DF000253032580030000D0A00D3
:107800000C94343C0C94513C0C94513C0C94513CE1
:107810000C94513C0C94513C0C94513C0C94513CB4
:107820000C94513C0C94513C0C94513C0C94513CA4
:107830000C94513C0C94513C0C94513C0C94513C94
:107840000C94513C0C94513C0C94513C0C94513C84
:107850000C94513C0C94513C0C94513C0C94513C74
:107860000C94513C0C94513C11241FBECFEFD8E036
:10787000DEBFCDBF11E0A0E0B1E0ECE9FFE702C060
:1078800005900D92A230B107D9F712E0A2E0B1E065
:1078900001C01D92AD30B107E1F70E942D3D0C945F
:1078A000CC3F0C94003C982F959595959595959582
:1078B000905D8F708A307CF0282F295A8091C0000B
:1078C00085FFFCCF9093C6008091C00085FFFCCF60
:1078D0002093C6000895282F205DF0CF982F809127
:1078E000C00085FFFCCF9093C6000895EF92FF92F1
:1078F0000F931F93EE24FF2487018091C00087FD22
:1079000017C00894E11CF11C011D111D81E4E8164B
:1079100082E4F8068FE0080780E0180770F3E09132
:107920000401F091050109958091C00087FFE9CF1E
:107930008091C6001F910F91FF90EF9008950E94D3
:10794000763C982F8091C00085FFFCCF9093C600B5
:1079500091362CF490330CF09053892F089597555D
:10796000892F08951F930E949F3C182F0E949F3CCF
:107970001295107F810F1F9108951F93182F882350
:1079800021F00E94763C1150E1F71F9108951F935A
:10799000182F0E94763C803249F0809103018F5F5E
:1079A000809303018530C1F01F9108958091C0003C
:1079B00085FFFCCF84E18093C6008091C00085FFE5
:1079C000FCCF1093C6008091C00085FFFCCF80E102
:1079D0008093C6001F910895E0910401F091050184
:1079E00009951F9108950E94763C803241F0809164
:1079F00003018F5F80930301853081F008958091AA
:107A0000C00085FFFCCF84E18093C6008091C00058
:107A100085FFFCCF80E18093C6000895E0910401CA
:107A2000F09105010995089540E951E08823A1F0FE
:107A30002D9A28EE33E0FA013197F1F721503040CA
:107A4000D1F72D9828EE33E0FA013197F1F7215064
:107A50003040D1F7815061F708953F924F925F9285
:107A60006F927F928F929F92AF92BF92CF92DF924E
:107A7000EF92FF920F931F93CF93DF93000080E16B
:107A80008093C4001092C50088E18093C10086E015
:107A90008093C2005098589A259A81E00E94143D24
:107AA00024E1F22E9EE1E92E85E9D82E0FE0C02ECA
:107AB00010E1B12EAA24A394B1E49B2EA6E58A2E50
:107AC000F2E57F2EE0E26E2E79E4572E63E5462E36
:107AD00050E5352E0E94763C8033B1F18133B9F107
:107AE000803409F46FC0813409F476C0823409F41B
:107AF00085C0853409F488C0803531F1823521F1A3
:107B0000813511F1853509F485C0863509F48DC0BC
:107B1000843609F496C0843709F403C1853709F423
:107B200072C1863709F466C0809103018F5F80932C
:107B30000301853079F6E0910401F0910501099582
:107B40000E94763C803351F60E94F33CC3CF0E94E2
:107B5000763C803249F78091C00085FFFCCFF092DF
:107B6000C6008091C00085FFFCCF9092C600809136
:107B7000C00085FFFCCF8092C6008091C00085FFC9
:107B8000FCCF7092C6008091C00085FFFCCF609250
:107B9000C6008091C00085FFFCCF5092C600809146
:107BA000C00085FFFCCF4092C6008091C00085FFD9
:107BB000FCCF3092C6008091C00085FFFCCFB09210
:107BC000C60088CF0E94763C863808F4BDCF0E945C
:107BD000763C0E94F33C7ECF0E94763C803809F4CC
:107BE0009CC0813809F40BC1823809F43CC1883942
:107BF00009F48FC080E00E94C73C6CCF84E10E94F2
:107C0000BD3C0E94F33C66CF85E00E94BD3C0E94D3
:107C1000F33C60CF0E94763C809306010E94763C44
:107C2000809307010E94F33C55CF0E94763C80333D
:107C300009F41DC183E00E94BD3C80E00E94C73C66
:107C400049CF0E94763C809309020E94763C809343
:107C5000080280910C028E7F80930C020E94763C79
:107C6000853409F415C18091080290910902892B8D
:107C700089F000E010E00E94763CF801E85FFE4FDA
:107C800080830F5F1F4F80910802909109020817AF
:107C9000190788F30E94763C803209F045CF809125
:107CA0000C0280FF01C16091060170910701660F0F
:107CB000771F7093070160930601A0910802B091AD
:107CC00009021097C9F0E8E0F1E09B01AD014E0F09
:107CD0005F1FF999FECF32BD21BD819180BDFA9A17
:107CE000F99A2F5F3F4FE417F50799F76A0F7B1F4B
:107CF00070930701609306018091C00085FFFCCF5F
:107D0000F092C6008091C00085FFFCCFB092C60003
:107D1000E1CE83E00E94C73CDDCE82E00E94C73CFA
:107D2000D9CE0E94763C809309020E94763C8093D3
:107D300008028091060190910701880F991F909386
:107D40000701809306010E94763C853409F4A6C0A1
:107D500080910C028E7F80930C020E94763C8032D0
:107D600009F0B8CE8091C00085FFFCCFF092C6002C
:107D7000609108027091090261157105B9F140E046
:107D800050E080910C02A82FA170B82FB27011C0E2
:107D9000BB2309F45CC0E0910601F0910701319624
:107DA000F0930701E09306014F5F5F4F46175707B7
:107DB000E8F4AA2369F3F999FECF209106013091E6
:107DC000070132BD21BDF89A90B58091C00085FFB2
:107DD000FCCF9093C6002F5F3F4F30930701209355
:107DE00006014F5F5F4F4617570718F38091C00099
:107DF00085FDE5CE8091C00085FFF8CFE0CE81E023
:107E00000E94C73C67CE0E94763C803209F08CCE3F
:107E10008091C00085FFFCCFF092C6008091C00029
:107E200085FFFCCFE092C6008091C00085FFFCCFAB
:107E3000D092C6008091C00085FFFCCFC092C600E2
:107E40008091C00085FFFCCFB092C60043CEE09188
:107E50000601F091070194918091C00085FFFCCF4D
:107E60009093C6009CCF80E10E94C73C33CE0E9415
:107E7000763C0E94763C182F0E94763C112309F430
:107E800083C0113009F484C08FE00E94C73C22CE29
:107E900080910C02816080930C02E5CE80910C02EF
:107EA000816080930C0259CF809107018823880F4D
:107EB000880B8A2180930B02809106019091070123
:107EC000880F991F90930701809306018091080203
:107ED00080FF09C080910802909109020196909359
:107EE000090280930802F894F999FECF1127E091D6
:107EF0000601F0910701C8E0D1E08091080290915D
:107F00000902103091F40091570001700130D9F34B
:107F100003E000935700E89500915700017001308D
:107F2000D9F301E100935700E89509901990009169
:107F3000570001700130D9F301E000935700E89534
:107F40001395103498F011270091570001700130FB
:107F5000D9F305E000935700E895009157000170B0
:107F60000130D9F301E100935700E895329602976A
:107F700009F0C7CF103011F00296E5CF112480919F
:107F8000C00085FFB9CEBCCE8EE10E94C73CA2CD19
:0E7F900085E90E94C73C9ECDF894FFCF80008B
:00000001FF
