:10000000B3C00000D9C00000D7C00000D5C00000B8
:10001000D3C00000D1C00000CFC00000CDC00000A0
:10002000CBC00000C9C0000009C3000084C30000A9
:10003000C3C00000C1C00000BFC00000BDC00000C0
:10004000BBC00000B9C00000B7C00000B5C00000D0
:10005000B3C00000B1C00000AFC000004EC200003D
:10006000ABC00000A9C00000A7C00000A5C00000F0
:10007000A3C00000A1C000009FC000009DC0000000
:100080009BC0000099C0000097C0000095C0000010
:1000900093C0000091C0000000010000490112005F
:1000A00002000006014300030000020104010309ED
:1000B00004E8001802030904D0001603030904C26F
:1000C000000C0C0331003200330034003500000016
:1000D00016035500530042002000530065007200D3
:1000E000690061006C0000001803540065006500A1
:1000F0006E00730079006400750069006E006F0087
:1001000000000403090409024300020100C032098F
:100110000400000102020100052400100105240171
:1001200000010424020605240600010705820308D5
:10013000004009040100020A000000070503024014
:1001400000000705840240000012010002020000C6
:1001500020C01683047202010203010001C10201E2
:10016000803601813600050711241FBECFEFD0E293
:10017000DEBFCDBF11E0A0E0B1E0E2EFF3E100E0CF
:100180000BBF02C007900D92AC32B107D9F721E046
:10019000ACE2B1E001C01D92A234B207E1F710E079
:1001A000C4EBD0E003C02197FE0142D6C33BD10788
:1001B000D1F730D40C94F70923CF10BA9BB988B982
:1001C00061E070E080E090E0D8D1709A8FB108953E
:1001D00040E056E960E070E088E391E0B0D58FEF51
:1001E0008AB987B908959B01205331092A30310516
:1001F00040F444E0880F991F4A95E1F7822B932B36
:1002000008959B01215631092630310550F434E020
:10021000880F991F3A95E1F767557109862B972B3F
:1002200008959B012154310926303105C8F724E097
:10023000880F991F2A95E1F767537109EFCF9F92B5
:10024000AF92BF92CF92DF92EF92FF920F931F93E4
:10025000CF93DF93CDB7DEB760970FB6F894DEBFCC
:100260000FBECDBFB82E8B016A01DF924F931F9353
:100270006F931F928F9387E091E09F938F931F92CC
:100280002FE0A22EAF92CE0101967C019F938F9317
:10029000D8D50FB6F894DEBF0FBECDBF92E5B91624
:1002A00091F187E5B81609F45EC094E4B91249C02B
:1002B000C00ED11E84E1A82E81E0B82E9FE0992EB9
:1002C0000C151D0509F43DC0C80177DF1F928F93FF
:1002D000BF92AF921F929F92FF92EF92B2D5F70119
:1002E00001900020E9F73197AF014E195F09B7017E
:1002F00088E391E024D40F5F1F4F0FB6F894DEBF60
:100300000FBECDBFDDCFC80158DF1F928F9384E1B0
:1003100091E09F938F931F92AF92FF92EF9291D5AE
:10032000F70101900020E9F73197AF014E195F09FD
:10033000B70188E391E003D40FB6F894DEBF0FBE97
:10034000CDBF60960FB6F894DEBF0FBECDBFDF9174
:10035000CF911F910F91FF90EF90DF90CF90BF90C2
:10036000AF909F9008958FEF80BB1BB908B961E0F3
:1003700070E080E090E001D17098C1BAE2CFEF92D6
:10038000FF920F931F93CF93DF93C0E0F12CE12CEA
:1003900010E000E0D0E088E391E056D3181619068B
:1003A000D4F788E391E089D3BC018D30910569F1E0
:1003B000C13029F140F0C23071F7C70114DF7C0170
:1003C000EACFC2E0E8CF87359105B1F04CF4843430
:1003D000910579F082359105F1F6C1E0D2E5DBCFE8
:1003E00082379105D1F38737910531F08436910535
:1003F00091F6C1E0D4E4CFCFC1E0D7E5CCCF809770
:1004000001F3C801F0DE8C01C6CFA701B8018D2F22
:1004100016DFDF91CF911F910F91FF90EF9008951C
:100420001DBA109268001CBC10BE1FBA10927A0050
:1004300010926E0010926F00109270001092710076
:100440001092C9001092BC0011B814B817B81AB8AD
:100450001DB810BA12B815B818B81BB81EB811BA22
:100460000895F894E1E6F0E020E82083108283E02C
:1004700084BD85BDEEE6F0E080818160808391E0FF
:100480009093800082E0809381009093B0008093ED
:10049000B100909390008093910086E880937A0059
:1004A00020937B0010927E00A7D078940895F89452
:1004B00084B7877F84BF80916000806180936000F3
:1004C0001092600080E29EE40197F1F781E0809352
:1004D000E00080E28093D80080E69AEE0197F1F781
:1004E0009FDF0C9400FEFFCFF8949ADF80E69AEE2F
:1004F0000197F1F70C940000FFCF8F938FB78F9384
:1005000080912C018D5F8D37D0F480932C018091E8
:100510002D018F5F80932D01D8F080912E018F4F98
:1005200080932E01A8F080912F018F4F80932F018F
:1005300078F0809130018F4F8093300109C08D5742
:1005400080932C0180912D018E5F80932D0128F7DF
:10055000809131018C5F8093310158F0809132019C
:100560008F4F8093320128F0809133018F4F809319
:1005700033018F918FBF8F911895CF92DF92EF92B9
:10058000FF926B017C0119D09B01C114D104E104DD
:10059000F10429F4FF90EF90DF90CF9008950DD0F3
:1005A000621B730B683E734080F381E0C81AD10868
:1005B000E108F10828513C4FE8CF0FB6F89466B532
:1005C00015B27091310180913201909133010FBECB
:1005D00010FE05C06F3F19F07C5F8F4F9F4F1124B5
:1005E0000024660F001C660F001C7029089580917E
:1005F000E80080FFFCCF08958091D80087FF02C0FB
:1006000085FF1BC081E88093D70080EA8093D800E3
:1006100086E189BD09B400FEFDCF80E98093D80052
:100620001092E00010924401109243011092420196
:100630001092E1008DE08093E20008951F920F92E6
:100640000FB60F9211240BB60F922F933F934F9337
:100650005F936F937F938F939F93AF93BF93EF932A
:10066000FF939091E1001092E10093FF11C010926E
:10067000E90081E08093EB001092EC0082E280932D
:10068000ED0088E08093F000109244011092420146
:1006900092FF1DC0809144018823C9F080913701E9
:1006A000882359F0815080933701811106C084E07E
:1006B0008093E9008AE38093E800809136018823E3
:1006C00031F0815080933601811101C0F0DE90FF3E
:1006D0000CC080E18093E2001092440181E080939D
:1006E000430180EA8093D80019BC8091430188239C
:1006F00079F094FF0DC086E189BD09B400FEFDCFFD
:1007000080E98093D8008DE08093E200109243014D
:10071000FF91EF91BF91AF919F918F917F916F91D9
:100720005F914F913F912F910F900BBE0F900FBE95
:100730000F901F9018951F920F920FB60F921124D1
:100740000BB60F92EF92FF920F931F932F933F934D
:100750004F935F936F937F938F939F93AF93BF93C9
:10076000CF93DF93EF93FF931092E9008091E8001D
:1007700083FF20C0D091F100C091F100E090F10022
:10078000F090F1000091F1001091F1002091F10042
:100790003091F10082EF8093E800C63009F05BC031
:1007A000E8E9F0E085919591E816F90639F035967B
:1007B000C150C1F781E28093EB002BC085919591E8
:1007C0000817190711F03396F3CF4591559184918D
:1007D0002F3F310519F010F02FEF30E0821708F4A9
:1007E000282F3EEF8091E800982F9570D9F382FD75
:1007F00010C0822F213208F080E2982F911124C07E
:10080000922F981B892F3093E80091111BC0203242
:10081000C8F4FF91EF91DF91CF91BF91AF919F917C
:100820008F917F916F915F914F913F912F911F9188
:100830000F91FF90EF900F900BBE0F900FBE0F9097
:100840001F901895282FCECFFA0145914093F100C3
:10085000AF019150D3CFC53049F48EEF8093E800BB
:10086000C6DE8E2D80688093E300D3CFC93021F59A
:10087000D111A0CFE09244011092420110923701B1
:100880008EEF8093E80081E0EBE5F1E08093E900F2
:1008900095919093EB00992331F095919093EC0012
:1008A00095919093ED008F5F853081F78EE1809375
:1008B000EA001092EA00ADCFC83061F4D03809F0F8
:1008C00079CF95DE809144018093F1008EEF809383
:1008D000E8009FCFC13279F4D13A09F06BCF87DEBF
:1008E000E0E0F1E080818093F100319681E0E73033
:1008F000F807C1F7EBCFC03209F047C0D13209F099
:1009000059CF8091E80082FFFCCFE0E0F1E08091D8
:10091000F1008083319691E0E730F907C1F78BEF62
:100920008093E8008EEF8093E800309100014091C1
:100930000101809102012091030190E0B0E0A0E06C
:10094000DC0199278827942B832BB22B86389105BD
:10095000A105B10521F48FE0809336015ACF863985
:100960009105A105B10509F054CF84E08093E90019
:100970009FEF8091EE00837009F4B6DD9093E8005C
:100980008091E80082FDFCCFF4CFC23239F4D1323D
:1009900009F010CFE09242012ADE98CFC33221F451
:1009A000D13209F007CFF8CFC11111C020DED23803
:1009B00049F40093E900C091EB00C5FBCC27C0F9D6
:1009C0001092E900C093F1001092F1007FCF8C2FBC
:1009D0008D7F813009F0EECED23009F0EBCEEF28DA
:1009E00009F0E8CE0F778FEF800F863008F0E2CE67
:1009F0008EEF8093E8000093E900C33009F4DACE6B
:100A000089E18093EB0081E090E001C0880F0A95B6
:100A1000EAF74DCF26DDDCDBB2DCFECFCF93DF93F0
:100A20001F92CDB7DEB76983DC01ED91FC910280A6
:100A3000F381E02D41E050E0BE016F5F7F4F0995EB
:100A40000F90DF91CF910895FC018FB7F8949091AA
:100A5000440191110CC090E08FBF2085318537FD96
:100A600003C09F3F09F09F5F892F90E0089593E0B6
:100A70009093E9009091F2009111EECF2091E8005F
:100A800022FFE9CF25FDE7CF2BE62093E800E4CF56
:100A9000CF93DF93EC018885998597FF09C0E881A2
:100AA000F9810284F385E02DCE0109959987888725
:100AB00088859985DF91CF910895FC012085318546
:100AC00037FD07C04FEF5FEF51874087C901992776
:100AD00008959FB7F89480914401811104C09FBF8D
:100AE0008FEF9FEF089583E08093E9002BE68091DC
:100AF000E80085FD05C082FFF2CF2093E800F7CF24
:100B00008091F1002091E80025FD03C02BE62093A1
:100B1000E8009FBF90E0089580914401882361F030
:100B20008FB7F89494E09093E9009091F2008FBF12
:100B300080E4891B90E0089590E080E00895BF92E2
:100B4000CF92DF92EF92FF920F931F93CF93DF9399
:100B50007C0180914401811110C081E0F701828302
:100B600010E000E0C801DF91CF911F910F91FF903D
:100B7000EF90DF90CF90BF9008952FB7F89484E066
:100B80008093E90080913501882341F08091E8004D
:100B900085FD02C02FBFE1CF1092350110E000E0CB
:100BA00084E0D82E90E4C92EA1EFB0E03AE3B32E52
:100BB00033E04115510509F4C0C08091E400815F24
:100BC0009091E80095FD16C02FBF9091E400891325
:100BD00006C081E080933501F7018283C3CF9091F5
:100BE0004401911102C081E0F7CF2FB7F894D09261
:100BF000E900E6CF8091F2009C2D981B9417150612
:100C000011F008F0942FE92FF0E04E1B5F0B0E0F50
:100C10001F1FEB01E0E4E91BE03428F4EE0FFF278F
:100C2000EC5EF94F099480C099919C9399919C93A3
:100C300099919C9399919C9399919C9399919C9350
:100C400099919C9399919C9399919C9399919C9340
:100C500099919C9399919C9399919C9399919C9330
:100C600099919C9399919C9399919C9399919C9320
:100C700099919C9399919C9399919C9399919C9310
:100C800099919C9399919C9399919C9399919C9300
:100C900099919C9399919C9399919C9399919C93F0
:100CA00099919C9399919C9399919C9399919C93E0
:100CB00099919C9399919C9399919C9399919C93D0
:100CC00099919C9399919C9399919C9399919C93C0
:100CD00099919C9399919C9399919C9399919C93B0
:100CE00099919C9399919C9399919C9399919C93A0
:100CF00099919C9399919C9399919C9399919C9390
:100D000099919C9399919C9399919C9399919C937F
:100D100099919C9399919C9399919C9399919C936F
:100D200099919C9399919C93BE018091E80085FFD5
:100D3000B092E800309337013CCF2FBF13CF2FEF95
:100D40003FEFFC013187208757DC0FB6F894809184
:100D50002D0190912E01A0912F01B09130010FBE75
:100D60009C0180914401882329F068EC70E080E0C8
:100D700090E003CC80914301882301F10FB6F894F1
:100D800040912D0150912E0160912F017091300101
:100D90000FBE80914301882389F00FB6F8948091AB
:100DA0002D0190912E01A0912F01B09130010FBE25
:100DB000841B950B8B3F910560F308950FB6F89453
:100DC00080912D0190912E01A0912F01B0913001C1
:100DD0000FBE821B930B853C994008F4C2CF089547
:100DE0008FB7F89490914401992361F09091370165
:100DF000992341F094E09093E9009AE39093E800FE
:100E0000109237018FBF0895EBCFE8E3F1E0118630
:100E10001086128288EE93E0A0E0B0E08383948392
:100E2000A583B68317828DE191E091838083089535
:100E3000EE0FFF1F0024001C0BBE0790F691E02D63
:100E400009940F931F93CF93DF93CDB7DEB72E97FF
:100E50000FB6F894DEBF0FBECDBF0D891E898F89F6
:100E6000988D26E02C831A83098397FF02C080E0C7
:100E700090E801979E838D83AE01455E5F4F698D3B
:100E80007A8DCE01019619D04D815E8157FD0AC041
:100E90002F813885421753070CF49A01020F131F54
:100EA000F80110822E960FB6F894DEBF0FBECDBFAC
:100EB000DF91CF911F910F9108952F923F924F9202
:100EC0005F926F927F928F929F92AF92BF92CF92DA
:100ED000DF92EF92FF920F931F93CF93DF93CDB7E3
:100EE000DEB72B970FB6F894DEBF0FBECDBF7C01E7
:100EF0003B018A01FC0117821682838181FFD0C1E8
:100F0000CE0101965C01F7019381F30193FD859178
:100F100093FF81913F01882309F449C1853239F457
:100F200093FD859193FF81913F01853221F4B701B3
:100F300090E0CFD1E8CF912C212C312CFFE1F3159B
:100F400038F08B3211F190F4803209F1833229F1BB
:100F500037FC3CC020ED280F2A3050F536FE20C06B
:100F60008AE0989E200D1124922E06C08D3291F0B9
:100F7000803371F7689430F8F30193FD859193FF06
:100F800081913F018111DACF21C0689431F86894D2
:100F900032F8F2CF689433F8EFCF689434F8ECCF9E
:100FA000EAE02E9E200D1124222E689435F8E4CF1D
:100FB0008E3229F436FCFBC0689436F8DDCF8C36CF
:100FC00019F4689437F8D8CF8836B1F2982F9F7DFE
:100FD00095549330D8F0833691F18337B1F183354E
:100FE00009F05EC02801F2E04F0E511CF801C080EC
:100FF000D180692D70E036FC02C06FEF7FEFC60133
:1010000052D14C01689437F882010AC00C5F1F4F1F
:10101000FFE3F98388248394912C6501E89437F8E1
:1010200033FE2AC0522C8114910459F5552009F43D
:101030006ACFB70180E290E04CD15A94F7CFF80123
:10104000808189830E5F1F4FE5CF2801F2E04F0EAC
:10105000511CF801C080D180692D70E036FC02C0BF
:101060006FEF7FEFC6012AD14C018201D7CFB701C4
:1010700080E290E02ED12A942814190409F0B8F7E0
:10108000D1CFF60137FC859137FE81916F01B70111
:1010900090E01FD151105A94F1E08F1A9108C3CFFC
:1010A000843619F0893609F073C0F80137FE67C03D
:1010B00060817181828193810C5F1F4FF32DFF76D8
:1010C0003F2E97FF09C090958095709561957F4F51
:1010D0008F4F9F4F689437F82AE030E0A50129D15F
:1010E000C82ECA188C2C432C36FE0CC0E89440F84D
:1010F000C91440F434FE05C032FC03C0F32DFE7E5B
:101100004F2E892C44FEA6C0FE01EC0DF11D8081FE
:10111000803309F098C0242D297E422E842D8870BA
:10112000582E43FCA5C040FE9FC09C2C821418F48E
:101130002C0C922C981844FEA1C0B70180E390E0DB
:10114000C8D042FE08C088E790E041FE02C088E5B2
:1011500090E0B701BED0C91408F49CC0CA94D12C49
:101160009FEFC91AD90ACA0CDB1CF60182916F01E4
:10117000B70190E0AED0AC14BD04B9F757CF608191
:101180007181072E000C880B990B0E5F1F4F96CFB5
:10119000D32CE894D4F82AE030E08537E1F1232D10
:1011A000297FD22E8F36A9F1F0F4883551F1F7015D
:1011B000868197812B960FB6F894DEBF0FBECDBF08
:1011C000DF91CF911F910F91FF90EF90DF90CF9023
:1011D000BF90AF909F908F907F906F905F904F9057
:1011E0003F902F900895803749F0883701F7D4FE5B
:1011F00002C06894D2F820E130E00DC06894D4F8C1
:10120000F6CF34FE03C0822F8660D82E20E132E074
:1012100002C028E030E0F801D7FE0EC06081718185
:10122000828193810C5F1F4FA50183D0C82ECA18FD
:101230003D2CE89437F856CF6081718190E080E0D2
:101240000E5F1F4FF1CF42FC02C0839467CF83949F
:10125000839464CF842D867809F460CFF6CFB701EC
:1012600080E290E036D083948214C8F3512C63CF8F
:10127000522C5818821408F45ECFF8CF842D86784B
:1012800009F469CF8BE241FE80E247FC8DE2B701B1
:1012900090E060CFB70180E390E01BD09A945BCFE1
:1012A0008FEF9FEF87CFFC010590615070400110D8
:1012B000D8F7809590958E0F9F1F0895FC0161507F
:1012C000704001900110D8F7809590958E0F9F1F68
:1012D00008950F931F93CF93DF93182F092FEB01DE
:1012E0008B8181FD09C01FEF0FEF812F902FDF91C0
:1012F000CF911F910F91089582FF14C02E813F81DD
:101300008C819D81281739073CF4E881F981CF0150
:1013100001969983888310838E819F8101969F8394
:101320008E83E3CFE885F985812F0995892BA1F379
:10133000DACFFA01AA27283051F1203181F1E8945F
:101340006F936E7F6E5F7F4F8F4F9F4FAF4FB1E0B8
:101350003ED0B4E03CD0670F781F891F9A1FA11DB3
:10136000680F791F8A1F911DA11D6A0F711D811DB4
:10137000911DA11D20D009F468943F912AE0269F79
:1013800011243019305D3193DEF6CF010895462FD8
:101390004770405D4193B3E00FD0C9F7F6CF462FB9
:1013A0004F70405D4A3318F0495D31FD4052419322
:1013B00002D0A9F7EACFB4E0A695979587957795DF
:1013C0006795BA95C9F700976105710508959B0166
:1013D000AC010A2E06945795479537952795BA95EF
:1013E000C9F7620F731F841F951FA01D0895F894FD
:0213F000FFCF2D
:1013F20000E1000000000825632025303458202534
:10140200303458002530325800000000000E059F8D
:0C141200058C05040724055D0548050055
:00000001FF
